{
  "_format": "hh-sol-artifact-1",
  "contractName": "Copyright",
  "sourceName": "contracts/Copyright.sol",
  "abi": [
    {
      "inputs": [
        {
          "internalType": "address",
          "name": "initialOwner",
          "type": "address"
        }
      ],
      "stateMutability": "nonpayable",
      "type": "constructor"
    },
    {
      "inputs": [
        {
          "internalType": "address",
          "name": "owner",
          "type": "address"
        }
      ],
      "name": "OwnableInvalidOwner",
      "type": "error"
    },
    {
      "inputs": [
        {
          "internalType": "address",
          "name": "account",
          "type": "address"
        }
      ],
      "name": "OwnableUnauthorizedAccount",
      "type": "error"
    },
    {
      "anonymous": false,
      "inputs": [
        {
          "indexed": false,
          "internalType": "uint256",
          "name": "id",
          "type": "uint256"
        },
        {
          "indexed": false,
          "internalType": "address",
          "name": "owner",
          "type": "address"
        },
        {
          "indexed": false,
          "internalType": "string",
          "name": "title",
          "type": "string"
        },
        {
          "indexed": false,
          "internalType": "string",
          "name": "artist",
          "type": "string"
        },
        {
          "indexed": false,
          "internalType": "string",
          "name": "hash",
          "type": "string"
        },
        {
          "indexed": false,
          "internalType": "uint256",
          "name": "registrationDate",
          "type": "uint256"
        }
      ],
      "name": "CopyrightRegistered",
      "type": "event"
    },
    {
      "anonymous": false,
      "inputs": [
        {
          "indexed": false,
          "internalType": "uint256",
          "name": "id",
          "type": "uint256"
        },
        {
          "indexed": false,
          "internalType": "address",
          "name": "previousOwner",
          "type": "address"
        },
        {
          "indexed": false,
          "internalType": "address",
          "name": "newOwner",
          "type": "address"
        }
      ],
      "name": "CopyrightTransferred",
      "type": "event"
    },
    {
      "anonymous": false,
      "inputs": [
        {
          "indexed": true,
          "internalType": "address",
          "name": "previousOwner",
          "type": "address"
        },
        {
          "indexed": true,
          "internalType": "address",
          "name": "newOwner",
          "type": "address"
        }
      ],
      "name": "OwnershipTransferred",
      "type": "event"
    },
    {
      "inputs": [],
      "name": "copyrightCount",
      "outputs": [
        {
          "internalType": "uint256",
          "name": "",
          "type": "uint256"
        }
      ],
      "stateMutability": "view",
      "type": "function"
    },
    {
      "inputs": [
        {
          "internalType": "uint256",
          "name": "",
          "type": "uint256"
        }
      ],
      "name": "copyrights",
      "outputs": [
        {
          "internalType": "address",
          "name": "owner",
          "type": "address"
        },
        {
          "internalType": "string",
          "name": "title",
          "type": "string"
        },
        {
          "internalType": "string",
          "name": "artist",
          "type": "string"
        },
        {
          "internalType": "string",
          "name": "hash",
          "type": "string"
        },
        {
          "internalType": "uint256",
          "name": "registrationDate",
          "type": "uint256"
        },
        {
          "internalType": "bool",
          "name": "isRegistered",
          "type": "bool"
        }
      ],
      "stateMutability": "view",
      "type": "function"
    },
    {
      "inputs": [],
      "name": "owner",
      "outputs": [
        {
          "internalType": "address",
          "name": "",
          "type": "address"
        }
      ],
      "stateMutability": "view",
      "type": "function"
    },
    {
      "inputs": [
        {
          "internalType": "string",
          "name": "title",
          "type": "string"
        },
        {
          "internalType": "string",
          "name": "artist",
          "type": "string"
        },
        {
          "internalType": "string",
          "name": "hash",
          "type": "string"
        }
      ],
      "name": "registerCopyright",
      "outputs": [],
      "stateMutability": "nonpayable",
      "type": "function"
    },
    {
      "inputs": [],
      "name": "renounceOwnership",
      "outputs": [],
      "stateMutability": "nonpayable",
      "type": "function"
    },
    {
      "inputs": [
        {
          "internalType": "uint256",
          "name": "id",
          "type": "uint256"
        },
        {
          "internalType": "address",
          "name": "newOwner",
          "type": "address"
        }
      ],
      "name": "transferCopyright",
      "outputs": [],
      "stateMutability": "nonpayable",
      "type": "function"
    },
    {
      "inputs": [
        {
          "internalType": "address",
          "name": "newOwner",
          "type": "address"
        }
      ],
      "name": "transferOwnership",
      "outputs": [],
      "stateMutability": "nonpayable",
      "type": "function"
    },
    {
      "inputs": [
        {
          "internalType": "uint256",
          "name": "id",
          "type": "uint256"
        }
      ],
      "name": "verifyOwnership",
      "outputs": [
        {
          "internalType": "address",
          "name": "",
          "type": "address"
        },
        {
          "internalType": "string",
          "name": "",
          "type": "string"
        },
        {
          "internalType": "string",
          "name": "",
          "type": "string"
        },
        {
          "internalType": "string",
          "name": "",
          "type": "string"
        },
        {
          "internalType": "uint256",
          "name": "",
          "type": "uint256"
        },
        {
          "internalType": "bool",
          "name": "",
          "type": "bool"
        }
      ],
      "stateMutability": "view",
      "type": "function"
    }
  ],
  "bytecode": "0x608060405234801561001057600080fd5b5060405161188c38038061188c833981810160405281019061003291906101e2565b80600073ffffffffffffffffffffffffffffffffffffffff168173ffffffffffffffffffffffffffffffffffffffff16036100a55760006040517f1e4fbdf700000000000000000000000000000000000000000000000000000000815260040161009c919061021e565b60405180910390fd5b6100b4816100bb60201b60201c565b5050610239565b60008060009054906101000a900473ffffffffffffffffffffffffffffffffffffffff169050816000806101000a81548173ffffffffffffffffffffffffffffffffffffffff021916908373ffffffffffffffffffffffffffffffffffffffff1602179055508173ffffffffffffffffffffffffffffffffffffffff168173ffffffffffffffffffffffffffffffffffffffff167f8be0079c531659141344cd1fd0a4f28419497f9722a3daafe3b4186f6b6457e060405160405180910390a35050565b600080fd5b600073ffffffffffffffffffffffffffffffffffffffff82169050919050565b60006101af82610184565b9050919050565b6101bf816101a4565b81146101ca57600080fd5b50565b6000815190506101dc816101b6565b92915050565b6000602082840312156101f8576101f761017f565b5b6000610206848285016101cd565b91505092915050565b610218816101a4565b82525050565b6000602082019050610233600083018461020f565b92915050565b611644806102486000396000f3fe608060405234801561001057600080fd5b50600436106100885760003560e01c8063c3f25d2b1161005b578063c3f25d2b14610106578063de611ee514610124578063ead4c27914610159578063f2fde38b1461017557610088565b8063039addab1461008d578063715018a6146100a95780637ceffa58146100b35780638da5cb5b146100e8575b600080fd5b6100a760048036038101906100a29190610cdd565b610191565b005b6100b16103c5565b005b6100cd60048036038101906100c89190610d1d565b6103d9565b6040516100df96959493929190610e13565b60405180910390f35b6100f06105da565b6040516100fd9190610e89565b60405180910390f35b61010e610603565b60405161011b9190610ea4565b60405180910390f35b61013e60048036038101906101399190610d1d565b610609565b60405161015096959493929190610e13565b60405180910390f35b610173600480360381019061016e9190610ff4565b6108eb565b005b61018f600480360381019061018a919061109b565b610a5c565b005b60025482111580156101a35750600082115b6101e2576040517f08c379a00000000000000000000000000000000000000000000000000000000081526004016101d990611114565b60405180910390fd5b3373ffffffffffffffffffffffffffffffffffffffff166001600084815260200190815260200160002060000160009054906101000a900473ffffffffffffffffffffffffffffffffffffffff1673ffffffffffffffffffffffffffffffffffffffff1614610286576040517f08c379a000000000000000000000000000000000000000000000000000000000815260040161027d90611180565b60405180910390fd5b600073ffffffffffffffffffffffffffffffffffffffff168173ffffffffffffffffffffffffffffffffffffffff16036102f5576040517f08c379a00000000000000000000000000000000000000000000000000000000081526004016102ec906111ec565b60405180910390fd5b60006001600084815260200190815260200160002060000160009054906101000a900473ffffffffffffffffffffffffffffffffffffffff169050816001600085815260200190815260200160002060000160006101000a81548173ffffffffffffffffffffffffffffffffffffffff021916908373ffffffffffffffffffffffffffffffffffffffff1602179055507fe3d50af3b33e319a9a55e1336da53b587d5381e58008882eee9c331b983081f28382846040516103b89392919061120c565b60405180910390a1505050565b6103cd610ae2565b6103d76000610b69565b565b60016020528060005260406000206000915090508060000160009054906101000a900473ffffffffffffffffffffffffffffffffffffffff169080600101805461042290611272565b80601f016020809104026020016040519081016040528092919081815260200182805461044e90611272565b801561049b5780601f106104705761010080835404028352916020019161049b565b820191906000526020600020905b81548152906001019060200180831161047e57829003601f168201915b5050505050908060020180546104b090611272565b80601f01602080910402602001604051908101604052809291908181526020018280546104dc90611272565b80156105295780601f106104fe57610100808354040283529160200191610529565b820191906000526020600020905b81548152906001019060200180831161050c57829003601f168201915b50505050509080600301805461053e90611272565b80601f016020809104026020016040519081016040528092919081815260200182805461056a90611272565b80156105b75780601f1061058c576101008083540402835291602001916105b7565b820191906000526020600020905b81548152906001019060200180831161059a57829003601f168201915b5050505050908060040154908060050160009054906101000a900460ff16905086565b60008060009054906101000a900473ffffffffffffffffffffffffffffffffffffffff16905090565b60025481565b6000606080606060008060025487111580156106255750600087115b610664576040517f08c379a000000000000000000000000000000000000000000000000000000000815260040161065b90611114565b60405180910390fd5b6000600160008981526020019081526020016000206040518060c00160405290816000820160009054906101000a900473ffffffffffffffffffffffffffffffffffffffff1673ffffffffffffffffffffffffffffffffffffffff1673ffffffffffffffffffffffffffffffffffffffff1681526020016001820180546106ea90611272565b80601f016020809104026020016040519081016040528092919081815260200182805461071690611272565b80156107635780601f1061073857610100808354040283529160200191610763565b820191906000526020600020905b81548152906001019060200180831161074657829003601f168201915b5050505050815260200160028201805461077c90611272565b80601f01602080910402602001604051908101604052809291908181526020018280546107a890611272565b80156107f55780601f106107ca576101008083540402835291602001916107f5565b820191906000526020600020905b8154815290600101906020018083116107d857829003601f168201915b5050505050815260200160038201805461080e90611272565b80601f016020809104026020016040519081016040528092919081815260200182805461083a90611272565b80156108875780601f1061085c57610100808354040283529160200191610887565b820191906000526020600020905b81548152906001019060200180831161086a57829003601f168201915b50505050508152602001600482015481526020016005820160009054906101000a900460ff1615151515815250509050806000015181602001518260400151836060015184608001518560a001519650965096509650965096505091939550919395565b600260008154809291906108fe906112d2565b91905055506040518060c001604052803373ffffffffffffffffffffffffffffffffffffffff1681526020018481526020018381526020018281526020014281526020016001151581525060016000600254815260200190815260200160002060008201518160000160006101000a81548173ffffffffffffffffffffffffffffffffffffffff021916908373ffffffffffffffffffffffffffffffffffffffff16021790555060208201518160010190816109ba91906114c6565b5060408201518160020190816109d091906114c6565b5060608201518160030190816109e691906114c6565b506080820151816004015560a08201518160050160006101000a81548160ff0219169083151502179055509050507feb676d1b7d576c78171cb9308a7e9844031772d9f1b8b47cde16da1471826f7c6002543385858542604051610a4f96959493929190611598565b60405180910390a1505050565b610a64610ae2565b600073ffffffffffffffffffffffffffffffffffffffff168173ffffffffffffffffffffffffffffffffffffffff1603610ad65760006040517f1e4fbdf7000000000000000000000000000000000000000000000000000000008152600401610acd9190610e89565b60405180910390fd5b610adf81610b69565b50565b610aea610c2d565b73ffffffffffffffffffffffffffffffffffffffff16610b086105da565b73ffffffffffffffffffffffffffffffffffffffff1614610b6757610b2b610c2d565b6040517f118cdaa7000000000000000000000000000000000000000000000000000000008152600401610b5e9190610e89565b60405180910390fd5b565b60008060009054906101000a900473ffffffffffffffffffffffffffffffffffffffff169050816000806101000a81548173ffffffffffffffffffffffffffffffffffffffff021916908373ffffffffffffffffffffffffffffffffffffffff1602179055508173ffffffffffffffffffffffffffffffffffffffff168173ffffffffffffffffffffffffffffffffffffffff167f8be0079c531659141344cd1fd0a4f28419497f9722a3daafe3b4186f6b6457e060405160405180910390a35050565b600033905090565b6000604051905090565b600080fd5b600080fd5b6000819050919050565b610c5c81610c49565b8114610c6757600080fd5b50565b600081359050610c7981610c53565b92915050565b600073ffffffffffffffffffffffffffffffffffffffff82169050919050565b6000610caa82610c7f565b9050919050565b610cba81610c9f565b8114610cc557600080fd5b50565b600081359050610cd781610cb1565b92915050565b60008060408385031215610cf457610cf3610c3f565b5b6000610d0285828601610c6a565b9250506020610d1385828601610cc8565b9150509250929050565b600060208284031215610d3357610d32610c3f565b5b6000610d4184828501610c6a565b91505092915050565b610d5381610c9f565b82525050565b600081519050919050565b600082825260208201905092915050565b60005b83811015610d93578082015181840152602081019050610d78565b60008484015250505050565b6000601f19601f8301169050919050565b6000610dbb82610d59565b610dc58185610d64565b9350610dd5818560208601610d75565b610dde81610d9f565b840191505092915050565b610df281610c49565b82525050565b60008115159050919050565b610e0d81610df8565b82525050565b600060c082019050610e286000830189610d4a565b8181036020830152610e3a8188610db0565b90508181036040830152610e4e8187610db0565b90508181036060830152610e628186610db0565b9050610e716080830185610de9565b610e7e60a0830184610e04565b979650505050505050565b6000602082019050610e9e6000830184610d4a565b92915050565b6000602082019050610eb96000830184610de9565b92915050565b600080fd5b600080fd5b7f4e487b7100000000000000000000000000000000000000000000000000000000600052604160045260246000fd5b610f0182610d9f565b810181811067ffffffffffffffff82111715610f2057610f1f610ec9565b5b80604052505050565b6000610f33610c35565b9050610f3f8282610ef8565b919050565b600067ffffffffffffffff821115610f5f57610f5e610ec9565b5b610f6882610d9f565b9050602081019050919050565b82818337600083830152505050565b6000610f97610f9284610f44565b610f29565b905082815260208101848484011115610fb357610fb2610ec4565b5b610fbe848285610f75565b509392505050565b600082601f830112610fdb57610fda610ebf565b5b8135610feb848260208601610f84565b91505092915050565b60008060006060848603121561100d5761100c610c3f565b5b600084013567ffffffffffffffff81111561102b5761102a610c44565b5b61103786828701610fc6565b935050602084013567ffffffffffffffff81111561105857611057610c44565b5b61106486828701610fc6565b925050604084013567ffffffffffffffff81111561108557611084610c44565b5b61109186828701610fc6565b9150509250925092565b6000602082840312156110b1576110b0610c3f565b5b60006110bf84828501610cc8565b91505092915050565b7f436f7079726967687420494420646f6573206e6f742065786973740000000000600082015250565b60006110fe601b83610d64565b9150611109826110c8565b602082019050919050565b6000602082019050818103600083015261112d816110f1565b9050919050565b7f596f7520646f206e6f74206f776e207468697320636f70797269676874000000600082015250565b600061116a601d83610d64565b915061117582611134565b602082019050919050565b600060208201905081810360008301526111998161115d565b9050919050565b7f496e76616c6964206e6577206f776e6572206164647265737300000000000000600082015250565b60006111d6601983610d64565b91506111e1826111a0565b602082019050919050565b60006020820190508181036000830152611205816111c9565b9050919050565b60006060820190506112216000830186610de9565b61122e6020830185610d4a565b61123b6040830184610d4a565b949350505050565b7f4e487b7100000000000000000000000000000000000000000000000000000000600052602260045260246000fd5b6000600282049050600182168061128a57607f821691505b60208210810361129d5761129c611243565b5b50919050565b7f4e487b7100000000000000000000000000000000000000000000000000000000600052601160045260246000fd5b60006112dd82610c49565b91507fffffffffffffffffffffffffffffffffffffffffffffffffffffffffffffffff820361130f5761130e6112a3565b5b600182019050919050565b60008190508160005260206000209050919050565b60006020601f8301049050919050565b600082821b905092915050565b60006008830261137c7fffffffffffffffffffffffffffffffffffffffffffffffffffffffffffffffff8261133f565b611386868361133f565b95508019841693508086168417925050509392505050565b6000819050919050565b60006113c36113be6113b984610c49565b61139e565b610c49565b9050919050565b6000819050919050565b6113dd836113a8565b6113f16113e9826113ca565b84845461134c565b825550505050565b600090565b6114066113f9565b6114118184846113d4565b505050565b5b818110156114355761142a6000826113fe565b600181019050611417565b5050565b601f82111561147a5761144b8161131a565b6114548461132f565b81016020851015611463578190505b61147761146f8561132f565b830182611416565b50505b505050565b600082821c905092915050565b600061149d6000198460080261147f565b1980831691505092915050565b60006114b6838361148c565b9150826002028217905092915050565b6114cf82610d59565b67ffffffffffffffff8111156114e8576114e7610ec9565b5b6114f28254611272565b6114fd828285611439565b600060209050601f831160018114611530576000841561151e578287015190505b61152885826114aa565b865550611590565b601f19841661153e8661131a565b60005b8281101561156657848901518255600182019150602085019450602081019050611541565b86831015611583578489015161157f601f89168261148c565b8355505b6001600288020188555050505b505050505050565b600060c0820190506115ad6000830189610de9565b6115ba6020830188610d4a565b81810360408301526115cc8187610db0565b905081810360608301526115e08186610db0565b905081810360808301526115f48185610db0565b905061160360a0830184610de9565b97965050505050505056fea264697066735822122035b84c53b9bdd9b11d06b94ae46acc7b22642439f63ee852af2f32b50f8cc18664736f6c634300081c0033",
  "linkReferences": {},
  "deployedLinkReferences": {}
}