{
  "_format": "hh-sol-artifact-1",
  "contractName": "Marketplace",
  "sourceName": "contracts/Marketplace.sol",
  "abi": [
    {
      "inputs": [
        {
          "internalType": "address",
          "name": "_musicNFT",
          "type": "address"
        },
        {
          "internalType": "address",
          "name": "initialOwner",
          "type": "address"
        }
      ],
      "stateMutability": "nonpayable",
      "type": "constructor"
    },
    {
      "inputs": [
        {
          "internalType": "address",
          "name": "owner",
          "type": "address"
        }
      ],
      "name": "OwnableInvalidOwner",
      "type": "error"
    },
    {
      "inputs": [
        {
          "internalType": "address",
          "name": "account",
          "type": "address"
        }
      ],
      "name": "OwnableUnauthorizedAccount",
      "type": "error"
    },
    {
      "anonymous": false,
      "inputs": [
        {
          "indexed": false,
          "internalType": "uint256",
          "name": "tokenId",
          "type": "uint256"
        },
        {
          "indexed": false,
          "internalType": "uint256",
          "name": "price",
          "type": "uint256"
        },
        {
          "indexed": false,
          "internalType": "address",
          "name": "seller",
          "type": "address"
        }
      ],
      "name": "MusicListed",
      "type": "event"
    },
    {
      "anonymous": false,
      "inputs": [
        {
          "indexed": false,
          "internalType": "uint256",
          "name": "tokenId",
          "type": "uint256"
        },
        {
          "indexed": false,
          "internalType": "address",
          "name": "buyer",
          "type": "address"
        },
        {
          "indexed": false,
          "internalType": "uint256",
          "name": "price",
          "type": "uint256"
        }
      ],
      "name": "MusicSold",
      "type": "event"
    },
    {
      "anonymous": false,
      "inputs": [
        {
          "indexed": true,
          "internalType": "address",
          "name": "previousOwner",
          "type": "address"
        },
        {
          "indexed": true,
          "internalType": "address",
          "name": "newOwner",
          "type": "address"
        }
      ],
      "name": "OwnershipTransferred",
      "type": "event"
    },
    {
      "inputs": [
        {
          "internalType": "uint256",
          "name": "tokenId",
          "type": "uint256"
        }
      ],
      "name": "buyMusic",
      "outputs": [],
      "stateMutability": "payable",
      "type": "function"
    },
    {
      "inputs": [
        {
          "internalType": "uint256",
          "name": "tokenId",
          "type": "uint256"
        },
        {
          "internalType": "uint256",
          "name": "price",
          "type": "uint256"
        }
      ],
      "name": "listForSale",
      "outputs": [],
      "stateMutability": "nonpayable",
      "type": "function"
    },
    {
      "inputs": [
        {
          "internalType": "uint256",
          "name": "",
          "type": "uint256"
        }
      ],
      "name": "listings",
      "outputs": [
        {
          "internalType": "uint256",
          "name": "price",
          "type": "uint256"
        },
        {
          "internalType": "address",
          "name": "seller",
          "type": "address"
        },
        {
          "internalType": "bool",
          "name": "isListed",
          "type": "bool"
        }
      ],
      "stateMutability": "view",
      "type": "function"
    },
    {
      "inputs": [],
      "name": "musicNFT",
      "outputs": [
        {
          "internalType": "contract IERC721",
          "name": "",
          "type": "address"
        }
      ],
      "stateMutability": "view",
      "type": "function"
    },
    {
      "inputs": [],
      "name": "owner",
      "outputs": [
        {
          "internalType": "address",
          "name": "",
          "type": "address"
        }
      ],
      "stateMutability": "view",
      "type": "function"
    },
    {
      "inputs": [],
      "name": "renounceOwnership",
      "outputs": [],
      "stateMutability": "nonpayable",
      "type": "function"
    },
    {
      "inputs": [
        {
          "internalType": "address",
          "name": "newOwner",
          "type": "address"
        }
      ],
      "name": "transferOwnership",
      "outputs": [],
      "stateMutability": "nonpayable",
      "type": "function"
    }
  ],
  "bytecode": "0x608060405234801561001057600080fd5b506040516110b23803806110b283398181016040528101906100329190610224565b80600073ffffffffffffffffffffffffffffffffffffffff168173ffffffffffffffffffffffffffffffffffffffff16036100a55760006040517f1e4fbdf700000000000000000000000000000000000000000000000000000000815260040161009c9190610273565b60405180910390fd5b6100b4816100fd60201b60201c565b5081600260006101000a81548173ffffffffffffffffffffffffffffffffffffffff021916908373ffffffffffffffffffffffffffffffffffffffff160217905550505061028e565b60008060009054906101000a900473ffffffffffffffffffffffffffffffffffffffff169050816000806101000a81548173ffffffffffffffffffffffffffffffffffffffff021916908373ffffffffffffffffffffffffffffffffffffffff1602179055508173ffffffffffffffffffffffffffffffffffffffff168173ffffffffffffffffffffffffffffffffffffffff167f8be0079c531659141344cd1fd0a4f28419497f9722a3daafe3b4186f6b6457e060405160405180910390a35050565b600080fd5b600073ffffffffffffffffffffffffffffffffffffffff82169050919050565b60006101f1826101c6565b9050919050565b610201816101e6565b811461020c57600080fd5b50565b60008151905061021e816101f8565b92915050565b6000806040838503121561023b5761023a6101c1565b5b60006102498582860161020f565b925050602061025a8582860161020f565b9150509250929050565b61026d816101e6565b82525050565b60006020820190506102886000830184610264565b92915050565b610e158061029d6000396000f3fe6080604052600436106100705760003560e01c8063de74e57b1161004e578063de74e57b146100d3578063e80d7fec14610112578063ee577b151461013b578063f2fde38b1461016657610070565b80632538c53314610075578063715018a6146100915780638da5cb5b146100a8575b600080fd5b61008f600480360381019061008a919061091f565b61018f565b005b34801561009d57600080fd5b506100a661040b565b005b3480156100b457600080fd5b506100bd61041f565b6040516100ca919061098d565b60405180910390f35b3480156100df57600080fd5b506100fa60048036038101906100f5919061091f565b610448565b604051610109939291906109d2565b60405180910390f35b34801561011e57600080fd5b5061013960048036038101906101349190610a09565b61049f565b005b34801561014757600080fd5b506101506106e5565b60405161015d9190610aa8565b60405180910390f35b34801561017257600080fd5b5061018d60048036038101906101889190610aef565b61070b565b005b600060016000838152602001908152602001600020604051806060016040529081600082015481526020016001820160009054906101000a900473ffffffffffffffffffffffffffffffffffffffff1673ffffffffffffffffffffffffffffffffffffffff1673ffffffffffffffffffffffffffffffffffffffff1681526020016001820160149054906101000a900460ff16151515158152505090508060400151610270576040517f08c379a000000000000000000000000000000000000000000000000000000000815260040161026790610b79565b60405180910390fd5b80600001513410156102b7576040517f08c379a00000000000000000000000000000000000000000000000000000000081526004016102ae90610be5565b60405180910390fd5b60008160200151905060006001600085815260200190815260200160002060010160146101000a81548160ff021916908315150217905550600260009054906101000a900473ffffffffffffffffffffffffffffffffffffffff1673ffffffffffffffffffffffffffffffffffffffff166342842e0e8233866040518463ffffffff1660e01b815260040161034e93929190610c05565b600060405180830381600087803b15801561036857600080fd5b505af115801561037c573d6000803e3d6000fd5b505050508073ffffffffffffffffffffffffffffffffffffffff166108fc349081150290604051600060405180830381858888f193505050501580156103c6573d6000803e3d6000fd5b507f71790ca9050328d0f543993999b26283a717613a918707b448beae0643ab48a2833384600001516040516103fe93929190610c3c565b60405180910390a1505050565b610413610791565b61041d6000610818565b565b60008060009054906101000a900473ffffffffffffffffffffffffffffffffffffffff16905090565b60016020528060005260406000206000915090508060000154908060010160009054906101000a900473ffffffffffffffffffffffffffffffffffffffff16908060010160149054906101000a900460ff16905083565b3373ffffffffffffffffffffffffffffffffffffffff16600260009054906101000a900473ffffffffffffffffffffffffffffffffffffffff1673ffffffffffffffffffffffffffffffffffffffff16636352211e846040518263ffffffff1660e01b81526004016105119190610c73565b602060405180830381865afa15801561052e573d6000803e3d6000fd5b505050506040513d601f19601f820116820180604052508101906105529190610ca3565b73ffffffffffffffffffffffffffffffffffffffff16146105a8576040517f08c379a000000000000000000000000000000000000000000000000000000000815260040161059f90610d1c565b60405180910390fd5b600081116105eb576040517f08c379a00000000000000000000000000000000000000000000000000000000081526004016105e290610d88565b60405180910390fd5b60405180606001604052808281526020013373ffffffffffffffffffffffffffffffffffffffff16815260200160011515815250600160008481526020019081526020016000206000820151816000015560208201518160010160006101000a81548173ffffffffffffffffffffffffffffffffffffffff021916908373ffffffffffffffffffffffffffffffffffffffff16021790555060408201518160010160146101000a81548160ff0219169083151502179055509050507f3cfe01437250cc2e9346a8c37367f7dd5f3e8ad09fb01fc92afa90accb437b758282336040516106d993929190610da8565b60405180910390a15050565b600260009054906101000a900473ffffffffffffffffffffffffffffffffffffffff1681565b610713610791565b600073ffffffffffffffffffffffffffffffffffffffff168173ffffffffffffffffffffffffffffffffffffffff16036107855760006040517f1e4fbdf700000000000000000000000000000000000000000000000000000000815260040161077c919061098d565b60405180910390fd5b61078e81610818565b50565b6107996108dc565b73ffffffffffffffffffffffffffffffffffffffff166107b761041f565b73ffffffffffffffffffffffffffffffffffffffff1614610816576107da6108dc565b6040517f118cdaa700000000000000000000000000000000000000000000000000000000815260040161080d919061098d565b60405180910390fd5b565b60008060009054906101000a900473ffffffffffffffffffffffffffffffffffffffff169050816000806101000a81548173ffffffffffffffffffffffffffffffffffffffff021916908373ffffffffffffffffffffffffffffffffffffffff1602179055508173ffffffffffffffffffffffffffffffffffffffff168173ffffffffffffffffffffffffffffffffffffffff167f8be0079c531659141344cd1fd0a4f28419497f9722a3daafe3b4186f6b6457e060405160405180910390a35050565b600033905090565b600080fd5b6000819050919050565b6108fc816108e9565b811461090757600080fd5b50565b600081359050610919816108f3565b92915050565b600060208284031215610935576109346108e4565b5b60006109438482850161090a565b91505092915050565b600073ffffffffffffffffffffffffffffffffffffffff82169050919050565b60006109778261094c565b9050919050565b6109878161096c565b82525050565b60006020820190506109a2600083018461097e565b92915050565b6109b1816108e9565b82525050565b60008115159050919050565b6109cc816109b7565b82525050565b60006060820190506109e760008301866109a8565b6109f4602083018561097e565b610a0160408301846109c3565b949350505050565b60008060408385031215610a2057610a1f6108e4565b5b6000610a2e8582860161090a565b9250506020610a3f8582860161090a565b9150509250929050565b6000819050919050565b6000610a6e610a69610a648461094c565b610a49565b61094c565b9050919050565b6000610a8082610a53565b9050919050565b6000610a9282610a75565b9050919050565b610aa281610a87565b82525050565b6000602082019050610abd6000830184610a99565b92915050565b610acc8161096c565b8114610ad757600080fd5b50565b600081359050610ae981610ac3565b92915050565b600060208284031215610b0557610b046108e4565b5b6000610b1384828501610ada565b91505092915050565b600082825260208201905092915050565b7f54686973204e4654206973206e6f74206c697374656420666f722073616c6500600082015250565b6000610b63601f83610b1c565b9150610b6e82610b2d565b602082019050919050565b60006020820190508181036000830152610b9281610b56565b9050919050565b7f496e73756666696369656e742066756e64730000000000000000000000000000600082015250565b6000610bcf601283610b1c565b9150610bda82610b99565b602082019050919050565b60006020820190508181036000830152610bfe81610bc2565b9050919050565b6000606082019050610c1a600083018661097e565b610c27602083018561097e565b610c3460408301846109a8565b949350505050565b6000606082019050610c5160008301866109a8565b610c5e602083018561097e565b610c6b60408301846109a8565b949350505050565b6000602082019050610c8860008301846109a8565b92915050565b600081519050610c9d81610ac3565b92915050565b600060208284031215610cb957610cb86108e4565b5b6000610cc784828501610c8e565b91505092915050565b7f596f7520646f206e6f74206f776e2074686973204e4654000000000000000000600082015250565b6000610d06601783610b1c565b9150610d1182610cd0565b602082019050919050565b60006020820190508181036000830152610d3581610cf9565b9050919050565b7f5072696365206d7573742062652067726561746572207468616e203000000000600082015250565b6000610d72601c83610b1c565b9150610d7d82610d3c565b602082019050919050565b60006020820190508181036000830152610da181610d65565b9050919050565b6000606082019050610dbd60008301866109a8565b610dca60208301856109a8565b610dd7604083018461097e565b94935050505056fea2646970667358221220a15eeb1c7a8c917dd930a3ee183baa8067244df04918d45db5d8322dff21aa8064736f6c634300081c0033",
  "linkReferences": {},
  "deployedLinkReferences": {}
}