{
  "_format": "hh-sol-artifact-1",
  "contractName": "DisputeResolution",
  "sourceName": "contracts/DisputeResolution.sol",
  "abi": [
    {
      "inputs": [
        {
          "internalType": "address",
          "name": "initialOwner",
          "type": "address"
        }
      ],
      "stateMutability": "nonpayable",
      "type": "constructor"
    },
    {
      "inputs": [
        {
          "internalType": "address",
          "name": "owner",
          "type": "address"
        }
      ],
      "name": "OwnableInvalidOwner",
      "type": "error"
    },
    {
      "inputs": [
        {
          "internalType": "address",
          "name": "account",
          "type": "address"
        }
      ],
      "name": "OwnableUnauthorizedAccount",
      "type": "error"
    },
    {
      "anonymous": false,
      "inputs": [
        {
          "indexed": false,
          "internalType": "uint256",
          "name": "disputeId",
          "type": "uint256"
        },
        {
          "indexed": false,
          "internalType": "uint256",
          "name": "musicId",
          "type": "uint256"
        },
        {
          "indexed": false,
          "internalType": "address",
          "name": "claimant",
          "type": "address"
        },
        {
          "indexed": false,
          "internalType": "string",
          "name": "description",
          "type": "string"
        }
      ],
      "name": "DisputeFiled",
      "type": "event"
    },
    {
      "anonymous": false,
      "inputs": [
        {
          "indexed": false,
          "internalType": "uint256",
          "name": "disputeId",
          "type": "uint256"
        },
        {
          "indexed": false,
          "internalType": "uint256",
          "name": "musicId",
          "type": "uint256"
        },
        {
          "indexed": false,
          "internalType": "address",
          "name": "claimant",
          "type": "address"
        }
      ],
      "name": "DisputeResolved",
      "type": "event"
    },
    {
      "anonymous": false,
      "inputs": [
        {
          "indexed": true,
          "internalType": "address",
          "name": "previousOwner",
          "type": "address"
        },
        {
          "indexed": true,
          "internalType": "address",
          "name": "newOwner",
          "type": "address"
        }
      ],
      "name": "OwnershipTransferred",
      "type": "event"
    },
    {
      "inputs": [],
      "name": "disputeCount",
      "outputs": [
        {
          "internalType": "uint256",
          "name": "",
          "type": "uint256"
        }
      ],
      "stateMutability": "view",
      "type": "function"
    },
    {
      "inputs": [
        {
          "internalType": "uint256",
          "name": "",
          "type": "uint256"
        }
      ],
      "name": "disputes",
      "outputs": [
        {
          "internalType": "uint256",
          "name": "musicId",
          "type": "uint256"
        },
        {
          "internalType": "address",
          "name": "claimant",
          "type": "address"
        },
        {
          "internalType": "string",
          "name": "description",
          "type": "string"
        },
        {
          "internalType": "bool",
          "name": "resolved",
          "type": "bool"
        }
      ],
      "stateMutability": "view",
      "type": "function"
    },
    {
      "inputs": [
        {
          "internalType": "uint256",
          "name": "musicId",
          "type": "uint256"
        },
        {
          "internalType": "string",
          "name": "description",
          "type": "string"
        }
      ],
      "name": "fileDispute",
      "outputs": [],
      "stateMutability": "nonpayable",
      "type": "function"
    },
    {
      "inputs": [],
      "name": "owner",
      "outputs": [
        {
          "internalType": "address",
          "name": "",
          "type": "address"
        }
      ],
      "stateMutability": "view",
      "type": "function"
    },
    {
      "inputs": [],
      "name": "renounceOwnership",
      "outputs": [],
      "stateMutability": "nonpayable",
      "type": "function"
    },
    {
      "inputs": [
        {
          "internalType": "uint256",
          "name": "disputeId",
          "type": "uint256"
        }
      ],
      "name": "resolveDispute",
      "outputs": [],
      "stateMutability": "nonpayable",
      "type": "function"
    },
    {
      "inputs": [
        {
          "internalType": "address",
          "name": "newOwner",
          "type": "address"
        }
      ],
      "name": "transferOwnership",
      "outputs": [],
      "stateMutability": "nonpayable",
      "type": "function"
    }
  ],
  "bytecode": "0x608060405234801561001057600080fd5b50604051611148380380611148833981810160405281019061003291906101e2565b80600073ffffffffffffffffffffffffffffffffffffffff168173ffffffffffffffffffffffffffffffffffffffff16036100a55760006040517f1e4fbdf700000000000000000000000000000000000000000000000000000000815260040161009c919061021e565b60405180910390fd5b6100b4816100bb60201b60201c565b5050610239565b60008060009054906101000a900473ffffffffffffffffffffffffffffffffffffffff169050816000806101000a81548173ffffffffffffffffffffffffffffffffffffffff021916908373ffffffffffffffffffffffffffffffffffffffff1602179055508173ffffffffffffffffffffffffffffffffffffffff168173ffffffffffffffffffffffffffffffffffffffff167f8be0079c531659141344cd1fd0a4f28419497f9722a3daafe3b4186f6b6457e060405160405180910390a35050565b600080fd5b600073ffffffffffffffffffffffffffffffffffffffff82169050919050565b60006101af82610184565b9050919050565b6101bf816101a4565b81146101ca57600080fd5b50565b6000815190506101dc816101b6565b92915050565b6000602082840312156101f8576101f761017f565b5b6000610206848285016101cd565b91505092915050565b610218816101a4565b82525050565b6000602082019050610233600083018461020f565b92915050565b610f00806102486000396000f3fe608060405234801561001057600080fd5b506004361061007d5760003560e01c80638da5cb5b1161005b5780638da5cb5b146100db578063a28889e1146100f9578063c2b7b86814610117578063f2fde38b146101335761007d565b8063564a565d14610082578063715018a6146100b55780638243af1d146100bf575b600080fd5b61009c600480360381019061009791906106f2565b61014f565b6040516100ac949392919061081a565b60405180910390f35b6100bd610234565b005b6100d960048036038101906100d4919061099b565b610248565b005b6100e361037c565b6040516100f091906109f7565b60405180910390f35b6101016103a5565b60405161010e9190610a12565b60405180910390f35b610131600480360381019061012c91906106f2565b6103ab565b005b61014d60048036038101906101489190610a59565b6104cf565b005b60016020528060005260406000206000915090508060000154908060010160009054906101000a900473ffffffffffffffffffffffffffffffffffffffff169080600201805461019e90610ab5565b80601f01602080910402602001604051908101604052809291908181526020018280546101ca90610ab5565b80156102175780601f106101ec57610100808354040283529160200191610217565b820191906000526020600020905b8154815290600101906020018083116101fa57829003601f168201915b5050505050908060030160009054906101000a900460ff16905084565b61023c610555565b61024660006105dc565b565b6002600081548092919061025b90610b15565b919050555060405180608001604052808381526020013373ffffffffffffffffffffffffffffffffffffffff168152602001828152602001600015158152506001600060025481526020019081526020016000206000820151816000015560208201518160010160006101000a81548173ffffffffffffffffffffffffffffffffffffffff021916908373ffffffffffffffffffffffffffffffffffffffff16021790555060408201518160020190816103159190610d09565b5060608201518160030160006101000a81548160ff0219169083151502179055509050507f436e94ee8d1a47178f6f9c4004853a84b8ae47ed07f1d4a70623925bf7cc22486002548333846040516103709493929190610ddb565b60405180910390a15050565b60008060009054906101000a900473ffffffffffffffffffffffffffffffffffffffff16905090565b60025481565b6103b3610555565b6001600082815260200190815260200160002060030160009054906101000a900460ff1615610417576040517f08c379a000000000000000000000000000000000000000000000000000000000815260040161040e90610e73565b60405180910390fd5b600180600083815260200190815260200160002060030160006101000a81548160ff0219169083151502179055507f653e6c047dd65627873719eef14c02d5e2b4b0b6271f9c9df08fa5b06107d5798160016000848152602001908152602001600020600001546001600085815260200190815260200160002060010160009054906101000a900473ffffffffffffffffffffffffffffffffffffffff166040516104c493929190610e93565b60405180910390a150565b6104d7610555565b600073ffffffffffffffffffffffffffffffffffffffff168173ffffffffffffffffffffffffffffffffffffffff16036105495760006040517f1e4fbdf700000000000000000000000000000000000000000000000000000000815260040161054091906109f7565b60405180910390fd5b610552816105dc565b50565b61055d6106a0565b73ffffffffffffffffffffffffffffffffffffffff1661057b61037c565b73ffffffffffffffffffffffffffffffffffffffff16146105da5761059e6106a0565b6040517f118cdaa70000000000000000000000000000000000000000000000000000000081526004016105d191906109f7565b60405180910390fd5b565b60008060009054906101000a900473ffffffffffffffffffffffffffffffffffffffff169050816000806101000a81548173ffffffffffffffffffffffffffffffffffffffff021916908373ffffffffffffffffffffffffffffffffffffffff1602179055508173ffffffffffffffffffffffffffffffffffffffff168173ffffffffffffffffffffffffffffffffffffffff167f8be0079c531659141344cd1fd0a4f28419497f9722a3daafe3b4186f6b6457e060405160405180910390a35050565b600033905090565b6000604051905090565b600080fd5b600080fd5b6000819050919050565b6106cf816106bc565b81146106da57600080fd5b50565b6000813590506106ec816106c6565b92915050565b600060208284031215610708576107076106b2565b5b6000610716848285016106dd565b91505092915050565b610728816106bc565b82525050565b600073ffffffffffffffffffffffffffffffffffffffff82169050919050565b60006107598261072e565b9050919050565b6107698161074e565b82525050565b600081519050919050565b600082825260208201905092915050565b60005b838110156107a957808201518184015260208101905061078e565b60008484015250505050565b6000601f19601f8301169050919050565b60006107d18261076f565b6107db818561077a565b93506107eb81856020860161078b565b6107f4816107b5565b840191505092915050565b60008115159050919050565b610814816107ff565b82525050565b600060808201905061082f600083018761071f565b61083c6020830186610760565b818103604083015261084e81856107c6565b905061085d606083018461080b565b95945050505050565b600080fd5b600080fd5b7f4e487b7100000000000000000000000000000000000000000000000000000000600052604160045260246000fd5b6108a8826107b5565b810181811067ffffffffffffffff821117156108c7576108c6610870565b5b80604052505050565b60006108da6106a8565b90506108e6828261089f565b919050565b600067ffffffffffffffff82111561090657610905610870565b5b61090f826107b5565b9050602081019050919050565b82818337600083830152505050565b600061093e610939846108eb565b6108d0565b90508281526020810184848401111561095a5761095961086b565b5b61096584828561091c565b509392505050565b600082601f83011261098257610981610866565b5b813561099284826020860161092b565b91505092915050565b600080604083850312156109b2576109b16106b2565b5b60006109c0858286016106dd565b925050602083013567ffffffffffffffff8111156109e1576109e06106b7565b5b6109ed8582860161096d565b9150509250929050565b6000602082019050610a0c6000830184610760565b92915050565b6000602082019050610a27600083018461071f565b92915050565b610a368161074e565b8114610a4157600080fd5b50565b600081359050610a5381610a2d565b92915050565b600060208284031215610a6f57610a6e6106b2565b5b6000610a7d84828501610a44565b91505092915050565b7f4e487b7100000000000000000000000000000000000000000000000000000000600052602260045260246000fd5b60006002820490506001821680610acd57607f821691505b602082108103610ae057610adf610a86565b5b50919050565b7f4e487b7100000000000000000000000000000000000000000000000000000000600052601160045260246000fd5b6000610b20826106bc565b91507fffffffffffffffffffffffffffffffffffffffffffffffffffffffffffffffff8203610b5257610b51610ae6565b5b600182019050919050565b60008190508160005260206000209050919050565b60006020601f8301049050919050565b600082821b905092915050565b600060088302610bbf7fffffffffffffffffffffffffffffffffffffffffffffffffffffffffffffffff82610b82565b610bc98683610b82565b95508019841693508086168417925050509392505050565b6000819050919050565b6000610c06610c01610bfc846106bc565b610be1565b6106bc565b9050919050565b6000819050919050565b610c2083610beb565b610c34610c2c82610c0d565b848454610b8f565b825550505050565b600090565b610c49610c3c565b610c54818484610c17565b505050565b5b81811015610c7857610c6d600082610c41565b600181019050610c5a565b5050565b601f821115610cbd57610c8e81610b5d565b610c9784610b72565b81016020851015610ca6578190505b610cba610cb285610b72565b830182610c59565b50505b505050565b600082821c905092915050565b6000610ce060001984600802610cc2565b1980831691505092915050565b6000610cf98383610ccf565b9150826002028217905092915050565b610d128261076f565b67ffffffffffffffff811115610d2b57610d2a610870565b5b610d358254610ab5565b610d40828285610c7c565b600060209050601f831160018114610d735760008415610d61578287015190505b610d6b8582610ced565b865550610dd3565b601f198416610d8186610b5d565b60005b82811015610da957848901518255600182019150602085019450602081019050610d84565b86831015610dc65784890151610dc2601f891682610ccf565b8355505b6001600288020188555050505b505050505050565b6000608082019050610df0600083018761071f565b610dfd602083018661071f565b610e0a6040830185610760565b8181036060830152610e1c81846107c6565b905095945050505050565b7f4469737075746520616c7265616479207265736f6c7665640000000000000000600082015250565b6000610e5d60188361077a565b9150610e6882610e27565b602082019050919050565b60006020820190508181036000830152610e8c81610e50565b9050919050565b6000606082019050610ea8600083018661071f565b610eb5602083018561071f565b610ec26040830184610760565b94935050505056fea26469706673582212201b6e31aae8e1923d9a54e660b55127e4d32e4682defb1ec52df5583c239f802b64736f6c634300081c0033",
  "linkReferences": {},
  "deployedLinkReferences": {}
}