{
  "_format": "hh-sol-artifact-1",
  "contractName": "MusicRegistry",
  "sourceName": "contracts/MusicRegistry.sol",
  "abi": [
    {
      "inputs": [
        {
          "internalType": "address",
          "name": "initialOwner",
          "type": "address"
        }
      ],
      "stateMutability": "nonpayable",
      "type": "constructor"
    },
    {
      "inputs": [
        {
          "internalType": "address",
          "name": "owner",
          "type": "address"
        }
      ],
      "name": "OwnableInvalidOwner",
      "type": "error"
    },
    {
      "inputs": [
        {
          "internalType": "address",
          "name": "account",
          "type": "address"
        }
      ],
      "name": "OwnableUnauthorizedAccount",
      "type": "error"
    },
    {
      "anonymous": false,
      "inputs": [
        {
          "indexed": false,
          "internalType": "uint256",
          "name": "id",
          "type": "uint256"
        },
        {
          "indexed": false,
          "internalType": "string",
          "name": "title",
          "type": "string"
        },
        {
          "indexed": false,
          "internalType": "string",
          "name": "artist",
          "type": "string"
        },
        {
          "indexed": false,
          "internalType": "string",
          "name": "hash",
          "type": "string"
        },
        {
          "indexed": false,
          "internalType": "uint256",
          "name": "timestamp",
          "type": "uint256"
        }
      ],
      "name": "MusicRegistered",
      "type": "event"
    },
    {
      "anonymous": false,
      "inputs": [
        {
          "indexed": true,
          "internalType": "address",
          "name": "previousOwner",
          "type": "address"
        },
        {
          "indexed": true,
          "internalType": "address",
          "name": "newOwner",
          "type": "address"
        }
      ],
      "name": "OwnershipTransferred",
      "type": "event"
    },
    {
      "stateMutability": "payable",
      "type": "fallback"
    },
    {
      "inputs": [
        {
          "internalType": "uint256",
          "name": "id",
          "type": "uint256"
        }
      ],
      "name": "getMusic",
      "outputs": [
        {
          "internalType": "string",
          "name": "",
          "type": "string"
        },
        {
          "internalType": "string",
          "name": "",
          "type": "string"
        },
        {
          "internalType": "string",
          "name": "",
          "type": "string"
        },
        {
          "internalType": "uint256",
          "name": "",
          "type": "uint256"
        },
        {
          "internalType": "bool",
          "name": "",
          "type": "bool"
        }
      ],
      "stateMutability": "view",
      "type": "function"
    },
    {
      "inputs": [],
      "name": "musicCount",
      "outputs": [
        {
          "internalType": "uint256",
          "name": "",
          "type": "uint256"
        }
      ],
      "stateMutability": "view",
      "type": "function"
    },
    {
      "inputs": [
        {
          "internalType": "uint256",
          "name": "",
          "type": "uint256"
        }
      ],
      "name": "musicRegistry",
      "outputs": [
        {
          "internalType": "string",
          "name": "title",
          "type": "string"
        },
        {
          "internalType": "string",
          "name": "artist",
          "type": "string"
        },
        {
          "internalType": "string",
          "name": "hash",
          "type": "string"
        },
        {
          "internalType": "uint256",
          "name": "timestamp",
          "type": "uint256"
        },
        {
          "internalType": "bool",
          "name": "registered",
          "type": "bool"
        }
      ],
      "stateMutability": "view",
      "type": "function"
    },
    {
      "inputs": [],
      "name": "owner",
      "outputs": [
        {
          "internalType": "address",
          "name": "",
          "type": "address"
        }
      ],
      "stateMutability": "view",
      "type": "function"
    },
    {
      "inputs": [
        {
          "internalType": "string",
          "name": "title",
          "type": "string"
        },
        {
          "internalType": "string",
          "name": "artist",
          "type": "string"
        },
        {
          "internalType": "string",
          "name": "hash",
          "type": "string"
        }
      ],
      "name": "registerMusic",
      "outputs": [],
      "stateMutability": "nonpayable",
      "type": "function"
    },
    {
      "inputs": [],
      "name": "renounceOwnership",
      "outputs": [],
      "stateMutability": "nonpayable",
      "type": "function"
    },
    {
      "inputs": [
        {
          "internalType": "address",
          "name": "newOwner",
          "type": "address"
        }
      ],
      "name": "transferOwnership",
      "outputs": [],
      "stateMutability": "nonpayable",
      "type": "function"
    },
    {
      "stateMutability": "payable",
      "type": "receive"
    }
  ],
  "bytecode": "0x608060405234801561001057600080fd5b50604051611582380380611582833981810160405281019061003291906101e2565b80600073ffffffffffffffffffffffffffffffffffffffff168173ffffffffffffffffffffffffffffffffffffffff16036100a55760006040517f1e4fbdf700000000000000000000000000000000000000000000000000000000815260040161009c919061021e565b60405180910390fd5b6100b4816100bb60201b60201c565b5050610239565b60008060009054906101000a900473ffffffffffffffffffffffffffffffffffffffff169050816000806101000a81548173ffffffffffffffffffffffffffffffffffffffff021916908373ffffffffffffffffffffffffffffffffffffffff1602179055508173ffffffffffffffffffffffffffffffffffffffff168173ffffffffffffffffffffffffffffffffffffffff167f8be0079c531659141344cd1fd0a4f28419497f9722a3daafe3b4186f6b6457e060405160405180910390a35050565b600080fd5b600073ffffffffffffffffffffffffffffffffffffffff82169050919050565b60006101af82610184565b9050919050565b6101bf816101a4565b81146101ca57600080fd5b50565b6000815190506101dc816101b6565b92915050565b6000602082840312156101f8576101f761017f565b5b6000610206848285016101cd565b91505092915050565b610218816101a4565b82525050565b6000602082019050610233600083018461020f565b92915050565b61133a806102486000396000f3fe6080604052600436106100745760003560e01c8063715018a61161004e578063715018a6146101845780638da5cb5b1461019b578063bd0874ee146101c6578063f2fde38b14610207576100b4565b8063294f98b8146100ef5780634770ff8f1461011a578063606589c01461015b576100b4565b366100b4576040517f08c379a00000000000000000000000000000000000000000000000000000000081526004016100ab90610a1b565b60405180910390fd5b6040517f08c379a00000000000000000000000000000000000000000000000000000000081526004016100e690610a87565b60405180910390fd5b3480156100fb57600080fd5b50610104610230565b6040516101119190610ac0565b60405180910390f35b34801561012657600080fd5b50610141600480360381019061013c9190610b1b565b610236565b604051610152959493929190610be2565b60405180910390f35b34801561016757600080fd5b50610182600480360381019061017d9190610d7f565b6104b9565b005b34801561019057600080fd5b506101996105cd565b005b3480156101a757600080fd5b506101b06105e1565b6040516101bd9190610e67565b60405180910390f35b3480156101d257600080fd5b506101ed60048036038101906101e89190610b1b565b61060a565b6040516101fe959493929190610be2565b60405180910390f35b34801561021357600080fd5b5061022e60048036038101906102299190610eae565b6107e5565b005b60025481565b606080606060008060025486111580156102505750600086115b61028f576040517f08c379a000000000000000000000000000000000000000000000000000000000815260040161028690610f27565b60405180910390fd5b6000600160008881526020019081526020016000206040518060a00160405290816000820180546102bf90610f76565b80601f01602080910402602001604051908101604052809291908181526020018280546102eb90610f76565b80156103385780601f1061030d57610100808354040283529160200191610338565b820191906000526020600020905b81548152906001019060200180831161031b57829003601f168201915b5050505050815260200160018201805461035190610f76565b80601f016020809104026020016040519081016040528092919081815260200182805461037d90610f76565b80156103ca5780601f1061039f576101008083540402835291602001916103ca565b820191906000526020600020905b8154815290600101906020018083116103ad57829003601f168201915b505050505081526020016002820180546103e390610f76565b80601f016020809104026020016040519081016040528092919081815260200182805461040f90610f76565b801561045c5780601f106104315761010080835404028352916020019161045c565b820191906000526020600020905b81548152906001019060200180831161043f57829003601f168201915b50505050508152602001600382015481526020016004820160009054906101000a900460ff161515151581525050905080600001518160200151826040015183606001518460800151955095509550955095505091939590929450565b6104c161086b565b600260008154809291906104d490610fd6565b91905055506040518060a0016040528084815260200183815260200182815260200142815260200160011515815250600160006002548152602001908152602001600020600082015181600001908161052d91906111ca565b50602082015181600101908161054391906111ca565b50604082015181600201908161055991906111ca565b506060820151816003015560808201518160040160006101000a81548160ff0219169083151502179055509050507fd40efd9f93899b6c0f63b333fe41ba09211a77530a4b53c04f46ca0b9237bc19600254848484426040516105c095949392919061129c565b60405180910390a1505050565b6105d561086b565b6105df60006108f2565b565b60008060009054906101000a900473ffffffffffffffffffffffffffffffffffffffff16905090565b600160205280600052604060002060009150905080600001805461062d90610f76565b80601f016020809104026020016040519081016040528092919081815260200182805461065990610f76565b80156106a65780601f1061067b576101008083540402835291602001916106a6565b820191906000526020600020905b81548152906001019060200180831161068957829003601f168201915b5050505050908060010180546106bb90610f76565b80601f01602080910402602001604051908101604052809291908181526020018280546106e790610f76565b80156107345780601f1061070957610100808354040283529160200191610734565b820191906000526020600020905b81548152906001019060200180831161071757829003601f168201915b50505050509080600201805461074990610f76565b80601f016020809104026020016040519081016040528092919081815260200182805461077590610f76565b80156107c25780601f10610797576101008083540402835291602001916107c2565b820191906000526020600020905b8154815290600101906020018083116107a557829003601f168201915b5050505050908060030154908060040160009054906101000a900460ff16905085565b6107ed61086b565b600073ffffffffffffffffffffffffffffffffffffffff168173ffffffffffffffffffffffffffffffffffffffff160361085f5760006040517f1e4fbdf70000000000000000000000000000000000000000000000000000000081526004016108569190610e67565b60405180910390fd5b610868816108f2565b50565b6108736109b6565b73ffffffffffffffffffffffffffffffffffffffff166108916105e1565b73ffffffffffffffffffffffffffffffffffffffff16146108f0576108b46109b6565b6040517f118cdaa70000000000000000000000000000000000000000000000000000000081526004016108e79190610e67565b60405180910390fd5b565b60008060009054906101000a900473ffffffffffffffffffffffffffffffffffffffff169050816000806101000a81548173ffffffffffffffffffffffffffffffffffffffff021916908373ffffffffffffffffffffffffffffffffffffffff1602179055508173ffffffffffffffffffffffffffffffffffffffff168173ffffffffffffffffffffffffffffffffffffffff167f8be0079c531659141344cd1fd0a4f28419497f9722a3daafe3b4186f6b6457e060405160405180910390a35050565b600033905090565b600082825260208201905092915050565b7f4574686572207472616e7366657273206e6f7420616c6c6f7765640000000000600082015250565b6000610a05601b836109be565b9150610a10826109cf565b602082019050919050565b60006020820190508181036000830152610a34816109f8565b9050919050565b7f496e76616c69642066756e6374696f6e2063616c6c0000000000000000000000600082015250565b6000610a716015836109be565b9150610a7c82610a3b565b602082019050919050565b60006020820190508181036000830152610aa081610a64565b9050919050565b6000819050919050565b610aba81610aa7565b82525050565b6000602082019050610ad56000830184610ab1565b92915050565b6000604051905090565b600080fd5b600080fd5b610af881610aa7565b8114610b0357600080fd5b50565b600081359050610b1581610aef565b92915050565b600060208284031215610b3157610b30610ae5565b5b6000610b3f84828501610b06565b91505092915050565b600081519050919050565b60005b83811015610b71578082015181840152602081019050610b56565b60008484015250505050565b6000601f19601f8301169050919050565b6000610b9982610b48565b610ba381856109be565b9350610bb3818560208601610b53565b610bbc81610b7d565b840191505092915050565b60008115159050919050565b610bdc81610bc7565b82525050565b600060a0820190508181036000830152610bfc8188610b8e565b90508181036020830152610c108187610b8e565b90508181036040830152610c248186610b8e565b9050610c336060830185610ab1565b610c406080830184610bd3565b9695505050505050565b600080fd5b600080fd5b7f4e487b7100000000000000000000000000000000000000000000000000000000600052604160045260246000fd5b610c8c82610b7d565b810181811067ffffffffffffffff82111715610cab57610caa610c54565b5b80604052505050565b6000610cbe610adb565b9050610cca8282610c83565b919050565b600067ffffffffffffffff821115610cea57610ce9610c54565b5b610cf382610b7d565b9050602081019050919050565b82818337600083830152505050565b6000610d22610d1d84610ccf565b610cb4565b905082815260208101848484011115610d3e57610d3d610c4f565b5b610d49848285610d00565b509392505050565b600082601f830112610d6657610d65610c4a565b5b8135610d76848260208601610d0f565b91505092915050565b600080600060608486031215610d9857610d97610ae5565b5b600084013567ffffffffffffffff811115610db657610db5610aea565b5b610dc286828701610d51565b935050602084013567ffffffffffffffff811115610de357610de2610aea565b5b610def86828701610d51565b925050604084013567ffffffffffffffff811115610e1057610e0f610aea565b5b610e1c86828701610d51565b9150509250925092565b600073ffffffffffffffffffffffffffffffffffffffff82169050919050565b6000610e5182610e26565b9050919050565b610e6181610e46565b82525050565b6000602082019050610e7c6000830184610e58565b92915050565b610e8b81610e46565b8114610e9657600080fd5b50565b600081359050610ea881610e82565b92915050565b600060208284031215610ec457610ec3610ae5565b5b6000610ed284828501610e99565b91505092915050565b7f4d7573696320494420646f6573206e6f74206578697374000000000000000000600082015250565b6000610f116017836109be565b9150610f1c82610edb565b602082019050919050565b60006020820190508181036000830152610f4081610f04565b9050919050565b7f4e487b7100000000000000000000000000000000000000000000000000000000600052602260045260246000fd5b60006002820490506001821680610f8e57607f821691505b602082108103610fa157610fa0610f47565b5b50919050565b7f4e487b7100000000000000000000000000000000000000000000000000000000600052601160045260246000fd5b6000610fe182610aa7565b91507fffffffffffffffffffffffffffffffffffffffffffffffffffffffffffffffff820361101357611012610fa7565b5b600182019050919050565b60008190508160005260206000209050919050565b60006020601f8301049050919050565b600082821b905092915050565b6000600883026110807fffffffffffffffffffffffffffffffffffffffffffffffffffffffffffffffff82611043565b61108a8683611043565b95508019841693508086168417925050509392505050565b6000819050919050565b60006110c76110c26110bd84610aa7565b6110a2565b610aa7565b9050919050565b6000819050919050565b6110e1836110ac565b6110f56110ed826110ce565b848454611050565b825550505050565b600090565b61110a6110fd565b6111158184846110d8565b505050565b5b818110156111395761112e600082611102565b60018101905061111b565b5050565b601f82111561117e5761114f8161101e565b61115884611033565b81016020851015611167578190505b61117b61117385611033565b83018261111a565b50505b505050565b600082821c905092915050565b60006111a160001984600802611183565b1980831691505092915050565b60006111ba8383611190565b9150826002028217905092915050565b6111d382610b48565b67ffffffffffffffff8111156111ec576111eb610c54565b5b6111f68254610f76565b61120182828561113d565b600060209050601f8311600181146112345760008415611222578287015190505b61122c85826111ae565b865550611294565b601f1984166112428661101e565b60005b8281101561126a57848901518255600182019150602085019450602081019050611245565b868310156112875784890151611283601f891682611190565b8355505b6001600288020188555050505b505050505050565b600060a0820190506112b16000830188610ab1565b81810360208301526112c38187610b8e565b905081810360408301526112d78186610b8e565b905081810360608301526112eb8185610b8e565b90506112fa6080830184610ab1565b969550505050505056fea2646970667358221220b909fa6ac3840d0847bb9a9b177502cfc297efc74de2be7e43288a6d1e5f9f2764736f6c634300081c0033",
  "linkReferences": {},
  "deployedLinkReferences": {}
}